{
  "address": "0xae4e10E950993dDb23049eeE749A6dea578a3746",
  "abi": [
    {
      "inputs": [
        {
          "internalType": "address",
          "name": "vrfCoordinatorV2",
          "type": "address"
        },
        {
          "internalType": "uint256",
          "name": "entranceFee",
          "type": "uint256"
        },
        {
          "internalType": "bytes32",
          "name": "gasLane",
          "type": "bytes32"
        },
        {
          "internalType": "uint64",
          "name": "subscriptionId",
          "type": "uint64"
        },
        {
          "internalType": "uint32",
          "name": "callbackGasLimit",
          "type": "uint32"
        },
        {
          "internalType": "uint256",
          "name": "interval",
          "type": "uint256"
        }
      ],
      "stateMutability": "nonpayable",
      "type": "constructor"
    },
    {
      "inputs": [],
      "name": "Lottery__NotEnoughETHEntered",
      "type": "error"
    },
    {
      "inputs": [],
      "name": "Lottery__NotOpen",
      "type": "error"
    },
    {
      "inputs": [],
      "name": "Lottery__TransferFailed",
      "type": "error"
    },
    {
      "inputs": [
        {
          "internalType": "uint256",
          "name": "currentBalance",
          "type": "uint256"
        },
        {
          "internalType": "uint256",
          "name": "numPlayers",
          "type": "uint256"
        },
        {
          "internalType": "uint256",
          "name": "lotteryState",
          "type": "uint256"
        }
      ],
      "name": "Lottery__UpkeepNotNeeded",
      "type": "error"
    },
    {
      "inputs": [
        {
          "internalType": "address",
          "name": "have",
          "type": "address"
        },
        {
          "internalType": "address",
          "name": "want",
          "type": "address"
        }
      ],
      "name": "OnlyCoordinatorCanFulfill",
      "type": "error"
    },
    {
      "anonymous": false,
      "inputs": [
        {
          "indexed": true,
          "internalType": "address",
          "name": "player",
          "type": "address"
        }
      ],
      "name": "LotteryEnter",
      "type": "event"
    },
    {
      "anonymous": false,
      "inputs": [
        {
          "indexed": true,
          "internalType": "uint256",
          "name": "requestId",
          "type": "uint256"
        }
      ],
      "name": "RequestedLotteryWinner",
      "type": "event"
    },
    {
      "anonymous": false,
      "inputs": [
        {
          "indexed": true,
          "internalType": "address",
          "name": "winner",
          "type": "address"
        }
      ],
      "name": "WinnerPicked",
      "type": "event"
    },
    {
      "inputs": [
        {
          "internalType": "bytes",
          "name": "",
          "type": "bytes"
        }
      ],
      "name": "checkUpkeep",
      "outputs": [
        {
          "internalType": "bool",
          "name": "upkeepNeeded",
          "type": "bool"
        },
        {
          "internalType": "bytes",
          "name": "",
          "type": "bytes"
        }
      ],
      "stateMutability": "nonpayable",
      "type": "function"
    },
    {
      "inputs": [],
      "name": "enterLottery",
      "outputs": [],
      "stateMutability": "payable",
      "type": "function"
    },
    {
      "inputs": [],
      "name": "getEntranceFee",
      "outputs": [
        {
          "internalType": "uint256",
          "name": "",
          "type": "uint256"
        }
      ],
      "stateMutability": "view",
      "type": "function"
    },
    {
      "inputs": [],
      "name": "getInterval",
      "outputs": [
        {
          "internalType": "uint256",
          "name": "",
          "type": "uint256"
        }
      ],
      "stateMutability": "view",
      "type": "function"
    },
    {
      "inputs": [],
      "name": "getLatestTimeStamp",
      "outputs": [
        {
          "internalType": "uint256",
          "name": "",
          "type": "uint256"
        }
      ],
      "stateMutability": "view",
      "type": "function"
    },
    {
      "inputs": [],
      "name": "getLotteryState",
      "outputs": [
        {
          "internalType": "enum Lottery.LotteryState",
          "name": "",
          "type": "uint8"
        }
      ],
      "stateMutability": "view",
      "type": "function"
    },
    {
      "inputs": [],
      "name": "getNumWords",
      "outputs": [
        {
          "internalType": "uint56",
          "name": "",
          "type": "uint56"
        }
      ],
      "stateMutability": "pure",
      "type": "function"
    },
    {
      "inputs": [],
      "name": "getNumberOfPlayers",
      "outputs": [
        {
          "internalType": "uint256",
          "name": "",
          "type": "uint256"
        }
      ],
      "stateMutability": "view",
      "type": "function"
    },
    {
      "inputs": [
        {
          "internalType": "uint256",
          "name": "index",
          "type": "uint256"
        }
      ],
      "name": "getPlayers",
      "outputs": [
        {
          "internalType": "address",
          "name": "",
          "type": "address"
        }
      ],
      "stateMutability": "view",
      "type": "function"
    },
    {
      "inputs": [],
      "name": "getRecentWinner",
      "outputs": [
        {
          "internalType": "address",
          "name": "",
          "type": "address"
        }
      ],
      "stateMutability": "view",
      "type": "function"
    },
    {
      "inputs": [],
      "name": "getRequestConfirmations",
      "outputs": [
        {
          "internalType": "uint256",
          "name": "",
          "type": "uint256"
        }
      ],
      "stateMutability": "pure",
      "type": "function"
    },
    {
      "inputs": [
        {
          "internalType": "bytes",
          "name": "",
          "type": "bytes"
        }
      ],
      "name": "performUpkeep",
      "outputs": [],
      "stateMutability": "nonpayable",
      "type": "function"
    },
    {
      "inputs": [
        {
          "internalType": "uint256",
          "name": "requestId",
          "type": "uint256"
        },
        {
          "internalType": "uint256[]",
          "name": "randomWords",
          "type": "uint256[]"
        }
      ],
      "name": "rawFulfillRandomWords",
      "outputs": [],
      "stateMutability": "nonpayable",
      "type": "function"
    }
  ],
  "transactionHash": "0xbabfd1ab580ffa75e905133541e8cfc2ab4019477525a7d324a568b2d6009400",
  "args": [
    "0x8103B0A8A00be2DDC778e6e7eaa21791Cd364625",
    "10000000000000000",
    "0x474e34a077df58807dbe9c96d3c009b23b3c6d0cce433e59bbf5b34f823bc56c",
    "2430",
    "500000",
    "30"
  ],
  "numDeployments": 1,
  "solcInputHash": "74f8bfe900ca5710c115c1d9cc5d36da",
  "bytecode": "0x6101606040523480156200001257600080fd5b506040516200183f3803806200183f833981810160405281019062000038919062000294565b858073ffffffffffffffffffffffffffffffffffffffff1660808173ffffffffffffffffffffffffffffffffffffffff1681525050508460a081815250508573ffffffffffffffffffffffffffffffffffffffff1660c08173ffffffffffffffffffffffffffffffffffffffff16815250508360e081815250508267ffffffffffffffff166101008167ffffffffffffffff16815250508163ffffffff166101208163ffffffff16815250506000600160146101000a81548160ff021916908360018111156200010d576200010c62000330565b5b0217905550426002819055508061014081815250505050505050506200035f565b600080fd5b600073ffffffffffffffffffffffffffffffffffffffff82169050919050565b6000620001608262000133565b9050919050565b620001728162000153565b81146200017e57600080fd5b50565b600081519050620001928162000167565b92915050565b6000819050919050565b620001ad8162000198565b8114620001b957600080fd5b50565b600081519050620001cd81620001a2565b92915050565b6000819050919050565b620001e881620001d3565b8114620001f457600080fd5b50565b6000815190506200020881620001dd565b92915050565b600067ffffffffffffffff82169050919050565b6200022d816200020e565b81146200023957600080fd5b50565b6000815190506200024d8162000222565b92915050565b600063ffffffff82169050919050565b6200026e8162000253565b81146200027a57600080fd5b50565b6000815190506200028e8162000263565b92915050565b60008060008060008060c08789031215620002b457620002b36200012e565b5b6000620002c489828a0162000181565b9650506020620002d789828a01620001bc565b9550506040620002ea89828a01620001f7565b9450506060620002fd89828a016200023c565b93505060806200031089828a016200027d565b92505060a06200032389828a01620001bc565b9150509295509295509295565b7f4e487b7100000000000000000000000000000000000000000000000000000000600052602160045260246000fd5b60805160a05160c05160e051610100516101205161014051611470620003cf600039600081816106bf015261072d0152600061051f015260006104fc015260006104db0152600061049f0152600081816102fa0152610753015260008181610320015261037401526114706000f3fe6080604052600436106100c25760003560e01c806353a2c19a1161007f5780636e04ff0d116100595780636e04ff0d1461025857806391ad27b414610296578063c1af5785146102c1578063fd6673f5146102cb576100c2565b806353a2c19a146101d75780635f1b0fd8146102025780636b68c03c1461022d576100c2565b806309bc33a7146100c75780631fe543e3146100f2578063320229eb1461011b5780634585e33b14610146578063460e20491461016f578063473f1ddc146101ac575b600080fd5b3480156100d357600080fd5b506100dc6102f6565b6040516100e99190610bbd565b60405180910390f35b3480156100fe57600080fd5b5061011960048036038101906101149190610d71565b61031e565b005b34801561012757600080fd5b506101306103de565b60405161013d9190610bbd565b60405180910390f35b34801561015257600080fd5b5061016d60048036038101906101689190610e28565b6103e8565b005b34801561017b57600080fd5b5061019660048036038101906101919190610e75565b6105d8565b6040516101a39190610ee3565b60405180910390f35b3480156101b857600080fd5b506101c161061f565b6040516101ce9190610ee3565b60405180910390f35b3480156101e357600080fd5b506101ec610649565b6040516101f99190610f20565b60405180910390f35b34801561020e57600080fd5b50610217610658565b6040516102249190610bbd565b60405180910390f35b34801561023957600080fd5b50610242610665565b60405161024f9190610fb2565b60405180910390f35b34801561026457600080fd5b5061027f600480360381019061027a9190611082565b61067c565b60405161028d929190611165565b60405180910390f35b3480156102a257600080fd5b506102ab610729565b6040516102b89190610bbd565b60405180910390f35b6102c9610751565b005b3480156102d757600080fd5b506102e06108c0565b6040516102ed9190610bbd565b60405180910390f35b60007f0000000000000000000000000000000000000000000000000000000000000000905090565b7f000000000000000000000000000000000000000000000000000000000000000073ffffffffffffffffffffffffffffffffffffffff163373ffffffffffffffffffffffffffffffffffffffff16146103d057337f00000000000000000000000000000000000000000000000000000000000000006040517f1cf993f40000000000000000000000000000000000000000000000000000000081526004016103c7929190611195565b60405180910390fd5b6103da82826108cc565b5050565b6000600254905090565b60006104026040518060200160405280600081525061067c565b509050806104715747600080549050600160149054906101000a900460ff16600181111561043357610432610f3b565b5b6040517f6e195f25000000000000000000000000000000000000000000000000000000008152600401610468939291906111be565b60405180910390fd5b60018060146101000a81548160ff0219169083600181111561049657610495610f3b565b5b021790555060007f000000000000000000000000000000000000000000000000000000000000000073ffffffffffffffffffffffffffffffffffffffff16635d3b1d307f00000000000000000000000000000000000000000000000000000000000000007f000000000000000000000000000000000000000000000000000000000000000060037f000000000000000000000000000000000000000000000000000000000000000060016040518663ffffffff1660e01b815260040161056095949392919061126d565b6020604051808303816000875af115801561057f573d6000803e3d6000fd5b505050506040513d601f19601f820116820180604052508101906105a391906112d5565b9050807febf56642252004c18a776f30d528e7a0ce8c5db14b6596fb6550f630c8a24c6c60405160405180910390a250505050565b60008082815481106105ed576105ec611302565b5b9060005260206000200160009054906101000a900473ffffffffffffffffffffffffffffffffffffffff169050919050565b6000600160009054906101000a900473ffffffffffffffffffffffffffffffffffffffff16905090565b6000600163ffffffff16905090565b6000600361ffff16905090565b6000600160149054906101000a900460ff16905090565b600060606000600160149054906101000a900460ff1660018111156106a4576106a3610f3b565b5b600060018111156106b8576106b7610f3b565b5b14905060007f0000000000000000000000000000000000000000000000000000000000000000600254426106ec9190611360565b1190506000806000805490501190506000804711905083801561070c5750825b80156107155750815b801561071e5750805b955050505050915091565b60007f0000000000000000000000000000000000000000000000000000000000000000905090565b7f00000000000000000000000000000000000000000000000000000000000000003410156107ab576040517fec269fd100000000000000000000000000000000000000000000000000000000815260040160405180910390fd5b600060018111156107bf576107be610f3b565b5b600160149054906101000a900460ff1660018111156107e1576107e0610f3b565b5b14610818576040517fe76be6fc00000000000000000000000000000000000000000000000000000000815260040160405180910390fd5b6000339080600181540180825580915050600190039060005260206000200160009091909190916101000a81548173ffffffffffffffffffffffffffffffffffffffff021916908373ffffffffffffffffffffffffffffffffffffffff1602179055503373ffffffffffffffffffffffffffffffffffffffff167f1d64fb5ba9f2548c5b98468d58f25b87b9e866afee0122e92d9fe722bf85076c60405160405180910390a2565b60008080549050905090565b60008080549050826000815181106108e7576108e6611302565b5b60200260200101516108f991906113c3565b905060008082815481106109105761090f611302565b5b9060005260206000200160009054906101000a900473ffffffffffffffffffffffffffffffffffffffff16905080600160006101000a81548173ffffffffffffffffffffffffffffffffffffffff021916908373ffffffffffffffffffffffffffffffffffffffff1602179055506000600160146101000a81548160ff021916908360018111156109a4576109a3610f3b565b5b0217905550600067ffffffffffffffff8111156109c4576109c3610c2e565b5b6040519080825280602002602001820160405280156109f25781602001602082028036833780820191505090505b5060009080519060200190610a08929190610afd565b504260028190555060008173ffffffffffffffffffffffffffffffffffffffff1647604051610a3690611425565b60006040518083038185875af1925050503d8060008114610a73576040519150601f19603f3d011682016040523d82523d6000602084013e610a78565b606091505b5050905080610ab3576040517f1c94012000000000000000000000000000000000000000000000000000000000815260040160405180910390fd5b8173ffffffffffffffffffffffffffffffffffffffff167f5b690ec4a06fe979403046eaeea5b3ce38524683c3001f662c8b5a829632f7df60405160405180910390a25050505050565b828054828255906000526020600020908101928215610b76579160200282015b82811115610b755782518260006101000a81548173ffffffffffffffffffffffffffffffffffffffff021916908373ffffffffffffffffffffffffffffffffffffffff16021790555091602001919060010190610b1d565b5b509050610b839190610b87565b5090565b5b80821115610ba0576000816000905550600101610b88565b5090565b6000819050919050565b610bb781610ba4565b82525050565b6000602082019050610bd26000830184610bae565b92915050565b6000604051905090565b600080fd5b600080fd5b610bf581610ba4565b8114610c0057600080fd5b50565b600081359050610c1281610bec565b92915050565b600080fd5b6000601f19601f8301169050919050565b7f4e487b7100000000000000000000000000000000000000000000000000000000600052604160045260246000fd5b610c6682610c1d565b810181811067ffffffffffffffff82111715610c8557610c84610c2e565b5b80604052505050565b6000610c98610bd8565b9050610ca48282610c5d565b919050565b600067ffffffffffffffff821115610cc457610cc3610c2e565b5b602082029050602081019050919050565b600080fd5b6000610ced610ce884610ca9565b610c8e565b90508083825260208201905060208402830185811115610d1057610d0f610cd5565b5b835b81811015610d395780610d258882610c03565b845260208401935050602081019050610d12565b5050509392505050565b600082601f830112610d5857610d57610c18565b5b8135610d68848260208601610cda565b91505092915050565b60008060408385031215610d8857610d87610be2565b5b6000610d9685828601610c03565b925050602083013567ffffffffffffffff811115610db757610db6610be7565b5b610dc385828601610d43565b9150509250929050565b600080fd5b60008083601f840112610de857610de7610c18565b5b8235905067ffffffffffffffff811115610e0557610e04610dcd565b5b602083019150836001820283011115610e2157610e20610cd5565b5b9250929050565b60008060208385031215610e3f57610e3e610be2565b5b600083013567ffffffffffffffff811115610e5d57610e5c610be7565b5b610e6985828601610dd2565b92509250509250929050565b600060208284031215610e8b57610e8a610be2565b5b6000610e9984828501610c03565b91505092915050565b600073ffffffffffffffffffffffffffffffffffffffff82169050919050565b6000610ecd82610ea2565b9050919050565b610edd81610ec2565b82525050565b6000602082019050610ef86000830184610ed4565b92915050565b600066ffffffffffffff82169050919050565b610f1a81610efe565b82525050565b6000602082019050610f356000830184610f11565b92915050565b7f4e487b7100000000000000000000000000000000000000000000000000000000600052602160045260246000fd5b60028110610f7b57610f7a610f3b565b5b50565b6000819050610f8c82610f6a565b919050565b6000610f9c82610f7e565b9050919050565b610fac81610f91565b82525050565b6000602082019050610fc76000830184610fa3565b92915050565b600080fd5b600067ffffffffffffffff821115610fed57610fec610c2e565b5b610ff682610c1d565b9050602081019050919050565b82818337600083830152505050565b600061102561102084610fd2565b610c8e565b90508281526020810184848401111561104157611040610fcd565b5b61104c848285611003565b509392505050565b600082601f83011261106957611068610c18565b5b8135611079848260208601611012565b91505092915050565b60006020828403121561109857611097610be2565b5b600082013567ffffffffffffffff8111156110b6576110b5610be7565b5b6110c284828501611054565b91505092915050565b60008115159050919050565b6110e0816110cb565b82525050565b600081519050919050565b600082825260208201905092915050565b60005b83811015611120578082015181840152602081019050611105565b60008484015250505050565b6000611137826110e6565b61114181856110f1565b9350611151818560208601611102565b61115a81610c1d565b840191505092915050565b600060408201905061117a60008301856110d7565b818103602083015261118c818461112c565b90509392505050565b60006040820190506111aa6000830185610ed4565b6111b76020830184610ed4565b9392505050565b60006060820190506111d36000830186610bae565b6111e06020830185610bae565b6111ed6040830184610bae565b949350505050565b6000819050919050565b611208816111f5565b82525050565b600067ffffffffffffffff82169050919050565b61122b8161120e565b82525050565b600061ffff82169050919050565b61124881611231565b82525050565b600063ffffffff82169050919050565b6112678161124e565b82525050565b600060a08201905061128260008301886111ff565b61128f6020830187611222565b61129c604083018661123f565b6112a9606083018561125e565b6112b6608083018461125e565b9695505050505050565b6000815190506112cf81610bec565b92915050565b6000602082840312156112eb576112ea610be2565b5b60006112f9848285016112c0565b91505092915050565b7f4e487b7100000000000000000000000000000000000000000000000000000000600052603260045260246000fd5b7f4e487b7100000000000000000000000000000000000000000000000000000000600052601160045260246000fd5b600061136b82610ba4565b915061137683610ba4565b925082820390508181111561138e5761138d611331565b5b92915050565b7f4e487b7100000000000000000000000000000000000000000000000000000000600052601260045260246000fd5b60006113ce82610ba4565b91506113d983610ba4565b9250826113e9576113e8611394565b5b828206905092915050565b600081905092915050565b50565b600061140f6000836113f4565b915061141a826113ff565b600082019050919050565b600061143082611402565b915081905091905056fea2646970667358221220a0324bb47b32ad6fd687c8423cf326007ea122a6724c51f99a1af9c966d1354064736f6c63430008120033",
  "devdoc": {
    "kind": "dev",
    "methods": {},
    "version": 1
  },
  "userdoc": {
    "kind": "user",
    "methods": {},
    "version": 1
  },
  "storageLayout": {
    "storage": [
      {
        "astId": 242,
        "contract": "contracts/Lottery.sol:Lottery",
        "label": "s_players",
        "offset": 0,
        "slot": "0",
        "type": "t_array(t_address_payable)dyn_storage"
      },
      {
        "astId": 259,
        "contract": "contracts/Lottery.sol:Lottery",
        "label": "s_recentWinner",
        "offset": 0,
        "slot": "1",
        "type": "t_address"
      },
      {
        "astId": 262,
        "contract": "contracts/Lottery.sol:Lottery",
        "label": "s_lotteryState",
        "offset": 20,
        "slot": "1",
        "type": "t_enum(LotteryState)237"
      },
      {
        "astId": 264,
        "contract": "contracts/Lottery.sol:Lottery",
        "label": "s_lastTimeStamp",
        "offset": 0,
        "slot": "2",
        "type": "t_uint256"
      }
    ],
    "types": {
      "t_address": {
        "encoding": "inplace",
        "label": "address",
        "numberOfBytes": "20"
      },
      "t_address_payable": {
        "encoding": "inplace",
        "label": "address payable",
        "numberOfBytes": "20"
      },
      "t_array(t_address_payable)dyn_storage": {
        "base": "t_address_payable",
        "encoding": "dynamic_array",
        "label": "address payable[]",
        "numberOfBytes": "32"
      },
      "t_enum(LotteryState)237": {
        "encoding": "inplace",
        "label": "enum Lottery.LotteryState",
        "numberOfBytes": "1"
      },
      "t_uint256": {
        "encoding": "inplace",
        "label": "uint256",
        "numberOfBytes": "32"
      }
    }
  }
}